:0A09F30000010202030304040505DD
:1002B700E4F513F512F511F510C203C200C202C22C
:1002C700011207727E077F008E238F24752B077517
:1002D7002C1275210775221C752907752A35752D6E
:1002E70007752E4EEE54C070030203B875140075DF
:1002F70015808E168F17C374709FFF74079ECF24C7
:1003070002CF3400FEE48F0F8E0EF50DF50CF50BC2
:10031700F50AF509F508AF0FAE0EAD0DAC0CAB0B3A
:10032700AA0AA909A808C31209D75033E517250B4C
:10033700F582E516350AF583E0FFE515250BF5820D
:10034700E514350AF583EFF0E50B2401F50BE435E9
:100357000AF50AE43509F509E43508F50880B78593
:10036700142385152474002480FF740734FFFEC30B
:10037700E52C9FF52CE52B9EF52BC3E5269FF5264F
:10038700E5259EF525C3E5289FF528E5279EF52752
:10039700C3E5229FF522E5219EF521C3E52A9FF5B6
:1003A7002AE5299EF529C3E52E9FF52EE52D9EF515
:1003B7002DD2E843D82090E668E04409F090E65C47
:1003C700E0443DF0D2AF90E680E020E105D2041290
:1003D70008D190E680E054F7F0538EF8C203120478
:1003E700FF300105120080C2013003F2120A0D50DE
:1003F700EDC2031204DA20001690E682E030E7042B
:10040700E020E1EF90E682E030E604E020E0E4124D
:070417000900120A0F80C763
:0B09E80090E509E030E402C322D322B6
:1000800090E6B9E0700302013F1470030201BC2442
:10009000FE700302023F24FB700302013914700357
:1000A00002013314700302012714700302012D248E
:1000B0000560030202A3120A1140030202AF90E698
:1000C000BBE024FE602714603824FD601114602713
:1000D00024067050E52390E6B3F0E524803C120935
:1000E000E8503EE52B90E6B3F0E52C802DE5259019
:1000F000E6B3F0E5268023E52790E6B3F0E5288017
:100100001990E6BAE0FF12092CAA06A9077B01EABA
:10011000494B600DEE90E6B3F0EF90E6B4F00202CA
:10012000AF02029E02029E1209C50202AF120A0528
:100130000202AF1209FD0202AF1209B30202AF12AE
:100140000A1340030202AF90E6B8E0247F60151462
:10015000601924027063A200E43325E0FFA202E4E8
:10016000334F8041E490E740F0803F90E6BCE0549C
:100170007EFF7E00E0D394807C0040047D018002FD
:100180007D00EC4EFEED4F24F3F58274093EF583BD
:10019000E493FF3395E0FEEF24A1FFEE34E68F8277
:1001A000F583E0540190E740F0E4A3F090E68AF094
:1001B00090E68B7402F00202AF02029E120A154012
:1001C000030202AF90E6B8E024FE6016240260034A
:1001D0000202AF90E6BAE0B40105C2000202AF022B
:1001E000029E90E6BAE0705590E6BCE0547EFF7E39
:1001F00000E0D394807C0040047D0180027D00EC0F
:100200004EFEED4F24F3F58274093EF583E493FF2F
:100210003395E0FEEF24A1FFEE34E68F82F583E014
:1002200054FEF090E6BCE05480131313541FFFE01B
:10023000540F2F90E683F0E04420F08072805F122C
:100240000A17506B90E6B8E024FE60192402704E45
:1002500090E6BAE0B40104D200805490E6BAE064BB
:1002600002604C803990E6BCE0547EFF7E00E0D313
:1002700094807C0040047D0180027D00EC4EFEED08
:100280004F24F3F58274093EF583E493FF3395E040
:10029000FEEF24A1FFEE34E68F82F583800D90E619
:1002A000A08008120863500790E6A0E04401F09097
:0602B000E6A0E04480F02E
:0102B6002225
:030033000206FBC7
:0406FB0053D8EF32AF
:1007720090E600E054E74410F090E60B7403F000BA
:10078200000090E61274A8F012041E90E604748031
:10079200F0000000E490E618F000000090E6047417
:1007A20002F000000090E6497482F0000000F000C0
:1007B2000000F0000000F000000090E6187410F055
:1007C200000000E490E604F000000090E6D204F09D
:0E07D20000000090E6D1F0000000E4F5BB222C
:0104FF0022DA
:020A0D00D322F2
:020A0F00D322F0
:020A1100D322EE
:0809FD0090E6BAE0F51BD322DD
:1009B30090E740E51BF0E490E68AF090E68B04F0C4
:0209C300D3223D
:080A050090E6BAE0F51AD322D5
:1009C50090E740E51AF0E490E68AF090E68B04F0B3
:0209D500D3222B
:020A1300D322EC
:020A1500D322EA
:020A1700D322E8
:1008630090E6B9E0243F601504702990E7407401D5
:10087300F0E490E68AF090E68B04F0801990E7406C
:100883007421F0A374CBF0E490E68AF090E68B74C5
:0808930002F08002D322C3220F
:10095700C0E0C083C082D2015391EF90E65D74017D
:08096700F0D082D083D0E03211
:10098700C0E0C083C0825391EF90E65D7404F0D05D
:0609970082D083D0E032A3
:10099D00C0E0C083C0825391EF90E65D7402F0D049
:0609AD0082D083D0E0328D
:10089B00C0E0C083C082852925852A2685268285CE
:1008AB002583A37402F0852127852228852882853C
:1008BB002783A37407F05391EF90E65D7410F0D08B
:0608CB0082D083D0E03270
:10096F00C0E0C083C082D2035391EF90E65D74085C
:08097F00F0D082D083D0E032F9
:10082600C0E0C083C08290E680E030E720852125C5
:10083600852226852682852583A37402F0852927AD
:10084600852A28852882852783A37407F05391EF8C
:0D08560090E65D7420F0D082D083D0E032B7
:0106FF0032C8
:010A190032AA
:010A1A0032A9
:010A1B0032A8
:010A1C0032A7
:010A1D0032A6
:010A1E0032A5
:010A1F0032A4
:010A200032A3
:010A210032A2
:010A220032A1
:010A230032A0
:010A2400329F
:010A2500329E
:010A2600329D
:010A2700329C
:010A2800329B
:010A2900329A
:010A2A003299
:010A2B003298
:010A2C003297
:010A2D003296
:010A2E003295
:010A2F003294
:010A30003293
:010A31003292
:010A32003291
:010A33003290
:010A3400328F
:010A3500328E
:010A3600328D
:010A3700328C
:010A3800328B
:010A3900328A
:010A3A003289
:010A3B003288
:100700001201000200000040B404041000000102C5
:1007100000010A0600020000004001000902190061
:1007200001010080320904000001FF0000000705FC
:1007300002020004000902190001010080320904CC
:10074000000001FF00000007050202400000040352
:100750000904100343007900700072006500730003
:1007600073000E0345005A002D005500530042004F
:02077000000087
:03004300020500B3
:03005300020500A3
:100500000209570002099D000209870002096F00D5
:1005100002089B00020826000206FF00020A1900DA
:10052000020A1A00020A1B00020A1C00020A1D002D
:10053000020A1E00020A1F00020A2000020A21000D
:10054000020A2200020A1900020A2300020A2400F9
:10055000020A2500020A2600020A2700020A2800D1
:10056000020A2900020A1900020A1900020A1900E7
:10057000020A2A00020A2B00020A2C00020A2D009D
:10058000020A2E00020A2F00020A3000020A31007D
:10059000020A3200020A3300020A3400020A35005D
:1005A000020A3600020A3700020A3800020A39003D
:0805B000020A3A00020A3B00B6
:1009000090E682E030E004E020E60B90E682E03002
:10091000E119E030E71590E680E04401F07F147EB5
:0C092000001207E090E680E054FEF02298
:1008D10030040990E680E0440AF0800790E680E069
:1008E1004408F07FDC7E051207E090E65D74FFF0BE
:0F08F10090E65FF05391EF90E680E054F7F0222D
:02092C00A90719
:10092E00AE2DAF2E8F828E83A3E064037017AD01C0
:10093E0019ED7001228F828E83E07C002FFDEC3E3C
:08094E00FEAF0580DFE4FEFFAF
:01095600227E
:1004DA0090E682E044C0F090E681F0438701000094
:0404EA0000000022EC
:1007E0008E188F1990E600E054187012E519240154
:1007F000FFE43518C313F518EF13F519801590E6CB
:1008000000E05418FFBF100BE51925E0F519E518B5
:1008100033F518E5191519AE18700215184E600554
:060820001204EE80EE223E
:1004EE007400F58690FDA57C05A3E582458370F921
:0104FE0022DB
:1005B800608010000101010101010107020202022D
:1005C8000202020201010101010101010000000013
:1005D8000000003F010101010101010702020202BE
:1005E80002020202010101010101010100000000F3
:1005F8000000003F0101010101010107020202029E
:1006080002020202010101010101010100000000D2
:100618000000003F0B010B980101010702020207CD
:10062800020202020000010101010101000000367E
:100638000000003F60241087000000000000000058
:1006480000000000000000000000000000000000A2
:10065800000000000000000000000000471080E0DB
:06066800100001EE4E003F
:10041E0090E60174EEF090E6F574FFF0901080E037
:10042E0090E6F3F0901081E090E6C3F0901082E039
:10043E0090E6C1F0901083E090E6C2F0901085E057
:10044E0090E6C0F0901086E090E6F4F075AF077479
:10045E0010F59A7400F59B759DE4E4F59EFF90E609
:10046E007BE090E67CF00FBF80F490E67174FFF0B5
:10047E00F5B490E672E04480F043B680000000E4EC
:10048E0090E6C4F000000090E6C5F0901087E09072
:10049E00E6C6F0901088E090E6C7F0901089E090E4
:1004AE00E6C8F090108AE090E6C9F090108BE090CC
:1004BE00E6CAF090108CE090E6CBF090108DE090B4
:0B04CE00E6CCF090108EE090E6CDF040
:0104D9002200
:0300000002066F86
:0C066F00787FE4F6D8FD75812E0206B6F7
:1009D700EB9FF5F0EA9E42F0E99D42F0E89C45F076
:0109E70022ED
:10067B000202B7E493A3F8E493A34003F68001F2DC
:10068B0008DFF48029E493A3F85407240CC8C33380
:10069B00C4540F4420C8834004F456800146F6DF4F
:1006AB00E4800B01020408102040809005B8E47E22
:1006BB00019360BCA3FF543F30E509541FFEE49344
:1006CB00A360010ECF54C025E060A840B8E493A30B
:1006DB00FAE493A3F8E493A3C8C582C8CAC583CA36
:1006EB00F0A3C8C582C8CAC583CADFE9DEE780BEEE
:01066E00008B
:00000001FF
