:0A0899000001020203030404050538
:1002B700E4F513F512F511F510C203C200C202C22C
:1002C7000112041E7E067F008E238F24752B067570
:1002D7002C1275210675221C752906752A43752D62
:1002E70006752E6AEE54C070030203B875140075C4
:1002F70015808E168F17C3748C9FFF74069ECF24AC
:1003070002CF3400FEE48F0F8E0EF50DF50CF50BC2
:10031700F50AF509F508AF0FAE0EAD0DAC0CAB0B3A
:10032700AA0AA909A808C31208715033E517250BB3
:10033700F582E516350AF583E0FFE515250BF5820D
:10034700E514350AF583EFF0E50B2401F50BE435E9
:100357000AF50AE43509F509E43508F50880B78593
:10036700142385152474002480FF740634FFFEC30C
:10037700E52C9FF52CE52B9EF52BC3E5269FF5264F
:10038700E5259EF525C3E5289FF528E5279EF52752
:10039700C3E5229FF522E5219EF521C3E52A9FF5B6
:1003A7002AE5299EF529C3E52E9FF52EE52D9EF515
:1003B7002DD2E843D82090E668E04409F090E65C47
:1003C700E0443DF0D2AF90E680E020E105D2041290
:1003D700074590E680E054F7F0538EF8C203120603
:1003E7008E300105120080C2013003F21205FE5063
:1003F700EDC2031207CC20001690E682E030E70436
:10040700E020E1EF90E682E030E604E020E0E4124D
:0704170007A01208B780C71F
:0B088E0090E509E030E402C322D32211
:1000800090E6B9E0700302013F1470030201BC2442
:10009000FE700302023F24FB700302013914700357
:1000A00002013314700302012714700302012D248E
:1000B0000560030202A31208B940030202AF90E6F2
:1000C000BBE024FE602714603824FD601114602713
:1000D00024067050E52390E6B3F0E524803C120836
:1000E0008E503EE52B90E6B3F0E52C802DE5259073
:1000F000E6B3F0E5268023E52790E6B3F0E5288017
:100100001990E6BAE0FF1204D5AA06A9077B01EA16
:10011000494B600DEE90E6B3F0EF90E6B4F00202CA
:10012000AF02029E02029E12085F0202AF1208ABEB
:100130000202AF1208A30202AF12084D0202AF1270
:1001400008BB40030202AF90E6B8E0247F601514BC
:10015000601924027063A200E43325E0FFA202E4E8
:10016000334F8041E490E740F0803F90E6BCE0549C
:100170007EFF7E00E0D394807C0040047D018002FD
:100180007D00EC4EFEED4F2499F58274083EF58318
:10019000E493FF3395E0FEEF24A1FFEE34E68F8277
:1001A000F583E0540190E740F0E4A3F090E68AF094
:1001B00090E68B7402F00202AF02029E1208BD406C
:1001C000030202AF90E6B8E024FE6016240260034A
:1001D0000202AF90E6BAE0B40105C2000202AF022B
:1001E000029E90E6BAE0705590E6BCE0547EFF7E39
:1001F00000E0D394807C0040047D0180027D00EC0F
:100200004EFEED4F2499F58274083EF583E493FF8A
:100210003395E0FEEF24A1FFEE34E68F82F583E014
:1002200054FEF090E6BCE05480131313541FFFE01B
:10023000540F2F90E683F0E04420F08072805F122C
:1002400008BF506B90E6B8E024FE60192402704E9F
:1002500090E6BAE0B40104D200805490E6BAE064BB
:1002600002604C803990E6BCE0547EFF7E00E0D313
:1002700094807C0040047D0180027D00EC4EFEED08
:100280004F2499F58274083EF583E493FF3395E09B
:10029000FEEF24A1FFEE34E68F82F583800D90E619
:1002A000A08008120487500790E6A0E04401F09077
:0602B000E6A0E04480F02E
:0102B6002225
:030033000208B30D
:0408B30053D8EF32F5
:10077400E4FE7D80FBFAEF5D6004D2808002C280DB
:10078400D283308103ED4206C283EDC313FD0BBB5C
:0B07940000010AEB64084A70DDAF06AC
:01079F002237
:10041E0090E600E054E74410F090E60B7403F00011
:10042E00000090E61074A0F090E611F0E490E68DD6
:10043E00F000000075B289D287C283C28090E612A6
:10044E0074A8F090E6017443F090E6047480F00016
:10045E0000007482F0000000E4F000000090E64915
:10046E007482F0000000F0000000F0000000F000C8
:09047E00000090E6187410F02251
:05068E00E5BA20E13E89
:1006930090E68DE0F518E4F519E519C39518502196
:1006A30074802519F582E434E7F583E0FF120774BB
:1006B30074C02519F582E434E7F583EFF00519805A
:0E06C300D890E68DE090E68FF0E490E68DF0A2
:0106D1002206
:0205FE00D32206
:0208B700D3224A
:0208B900D32248
:0808A30090E6BAE0F51BD32238
:10084D0090E740E51BF0E490E68AF090E68B04F02B
:02085D00D322A4
:0808AB0090E6BAE0F51AD32231
:10085F0090E740E51AF0E490E68AF090E68B04F01A
:02086F00D32292
:0208BB00D32246
:0208BD00D32244
:0208BF00D32242
:1004870090E6B9E0243F601A24FE60352403703AF1
:1004970090E7407405F0E490E68AF090E68B04F06C
:1004A700802A90E7407425F0A374CBF0A3740DF075
:1004B700A374CFF0E490E68AF090E68B7404F080A2
:0E04C7000B90E6BAE01392878002D322C32284
:1007F100C0E0C083C082D2015391EF90E65D7401E5
:08080100F0D082D083D0E03278
:10082100C0E0C083C0825391EF90E65D7404F0D0C4
:0608310082D083D0E0320A
:10083700C0E0C083C0825391EF90E65D7402F0D0B0
:0608470082D083D0E032F4
:10070F00C0E0C083C082852925852A26852682855B
:10071F002583A37402F085212785222885288285C9
:10072F002783A37407F05391EF90E65D7410F0D018
:06073F0082D083D0E032FD
:10080900C0E0C083C082D2035391EF90E65D7408C3
:08081900F0D082D083D0E03260
:1006D200C0E0C083C08290E680E030E7208521251B
:1006E200852226852682852583A37402F085292703
:1006F200852A28852882852783A37407F05391EFE2
:0D07020090E65D7420F0D082D083D0E0320C
:0108C1003204
:0108C2003203
:0108C3003202
:0108C4003201
:0108C5003200
:0108C60032FF
:0108C70032FE
:0108C80032FD
:0108C90032FC
:0108CA0032FB
:0108CB0032FA
:0108CC0032F9
:0108CD0032F8
:0108CE0032F7
:0108CF0032F6
:0108D00032F5
:0108D10032F4
:0108D20032F3
:0108D30032F2
:0108D40032F1
:0108D50032F0
:0108D60032EF
:0108D70032EE
:0108D80032ED
:0108D90032EC
:0108DA0032EB
:0108DB0032EA
:0108DC0032E9
:0108DD0032E8
:0108DE0032E7
:0108DF0032E6
:0108E00032E5
:0108E10032E4
:0108E20032E3
:0108E30032E2
:0108E40032E1
:100600001201000200000040B404041000000102C6
:1006100000010A0600020000004001000902270054
:1006200001010080320904000003FF0000000705FB
:100630000102400000070581024000000705020298
:1006400000040009022700010100803209040000B3
:1006500003FF0000000705010240000007058102BA
:1006600040000007050202400000040309041003D3
:1006700043007900700072006500730073000E0380
:0E06800045005A002D005500530042000000B6
:03004300020500B3
:03005300020500A3
:100500000207F10002083700020821000208090072
:1005100002070F000206D2000208C1000208C20052
:100520000208C3000208C4000208C5000208C60091
:100530000208C7000208C8000208C9000208CA0071
:100540000208CB000208C2000208CC000208CD005D
:100550000208CE000208CF000208D0000208D10035
:100560000208D2000208C2000208C2000208C2004B
:100570000208D3000208D4000208D5000208D60001
:100580000208D7000208D8000208D9000208DA00E1
:100590000208DB000208DC000208DD000208DE00C1
:1005A0000208DF000208E0000208E1000208E200A1
:0805B0000208E3000208E40068
:1007A00090E682E030E004E020E60B90E682E03064
:1007B000E119E030E71590E680E04401F07F147E17
:0C07C000001205B890E680E054FEF02224
:1007450030040990E680E0440AF0800790E680E0F6
:100755004408F07FDC7E051205B890E65D74FFF075
:0F07650090E65FF05391EF90E680E054F7F022BA
:0204D500A90775
:1004D700AE2DAF2E8F828E83A3E064037017AD011C
:1004E70019ED7001228F828E83E07C002FFDEC3E98
:0804F700FEAF0580DFE4FEFF0B
:0104FF0022DA
:1007CC0090E682E044C0F090E681F043870100009F
:0407DC0000000022F7
:1005B8008E188F1990E600E054187012E51924017E
:1005C800FFE43518C313F518EF13F519801590E6F5
:1005D80000E05418FFBF100BE51925E0F519E518E0
:1005E80033F518E5191519AE18700215184E60057F
:0605F8001207E080EE2274
:1007E0007400F58690FDA57C05A3E582458370F92C
:0107F00022E6
:0300000002088271
:0C088200787FE4F6D8FD75812E0202B7E5
:10087100EB9FF5F0EA9E42F0E99D42F0E89C45F0DD
:010881002254
:00000001FF
