:0A0D0C0000010202030304040505C0
:10049200E4F513F512F511F510C203C200C202C24F
:1004A200011208767E0B7F008E238F24752B0B752D
:1004B2002C1275210B75221C75290B752A35752D89
:1004C2000B752E4EEE54C070030205937514007521
:1004D20015808E168F17C374709FFF740B9ECF24E6
:1004E20002CF3400FEE48F0F8E0EF50DF50CF50BE6
:1004F200F50AF509F508AF0FAE0EAD0DAC0CAB0B5E
:10050200AA0AA909A808C31206C75033E517250B82
:10051200F582E516350AF583E0FFE515250BF58230
:10052200E514350AF583EFF0E50B2401F50BE4350C
:100532000AF50AE43509F509E43508F50880B785B6
:10054200142385152474002480FF740B34FFFEC32A
:10055200E52C9FF52CE52B9EF52BC3E5269FF52672
:10056200E5259EF525C3E5289FF528E5279EF52775
:10057200C3E5229FF522E5219EF521C3E52A9FF5D9
:100582002AE5299EF529C3E52E9FF52EE52D9EF538
:100592002DD2E843D82090E668E04409F090E65C6A
:1005A200E0443DF0D2AF90E680E020E105D20412B3
:1005B2000C1A90E680E054F7F0538EF8C203120A48
:1005C200FF300105120080C2013003F2120AFD5011
:1005D200EDC203120C7420001690E682E030E704AC
:1005E200E020E1EF90E682E030E604E020E0E41271
:0705F20008D4120D2A80C796
:0B0D010090E509E030E402C322D32299
:1000800090E6B9E0700302013F1470030201BC2442
:10009000FE700302023F24FB700302013914700357
:1000A00002013314700302012714700302012D248E
:1000B0000560030202A3120D2C40030202AF90E67A
:1000C000BBE024FE602714603824FD601114602713
:1000D00024067050E52390E6B3F0E524803C120D31
:1000E00001503EE52B90E6B3F0E52C802DE5259000
:1000F000E6B3F0E5268023E52790E6B3F0E5288017
:100100001990E6BAE0FF120C49AA06A9077B01EA9A
:10011000494B600DEE90E6B3F0EF90E6B4F00202CA
:10012000AF02029E02029E120CEF0202AF120D1EDF
:100130000202AF120D160202AF120CDD0202AF1264
:100140000D2E40030202AF90E6B8E0247F60151444
:10015000601924027063A200E43325E0FFA202E4E8
:10016000334F8041E490E740F0803F90E6BCE0549C
:100170007EFF7E00E0D394807C0040047D018002FD
:100180007D00EC4EFEED4F240CF582740D3EF583A0
:10019000E493FF3395E0FEEF24A1FFEE34E68F8277
:1001A000F583E0540190E740F0E4A3F090E68AF094
:1001B00090E68B7402F00202AF02029E120D3040F4
:1001C000030202AF90E6B8E024FE6016240260034A
:1001D0000202AF90E6BAE0B40105C2000202AF022B
:1001E000029E90E6BAE0705590E6BCE0547EFF7E39
:1001F00000E0D394807C0040047D0180027D00EC0F
:100200004EFEED4F240CF582740D3EF583E493FF12
:100210003395E0FEEF24A1FFEE34E68F82F583E014
:1002200054FEF090E6BCE05480131313541FFFE01B
:10023000540F2F90E683F0E04420F08072805F122C
:100240000D32506B90E6B8E024FE60192402704E27
:1002500090E6BAE0B40104D200805490E6BAE064BB
:1002600002604C803990E6BCE0547EFF7E00E0D313
:1002700094807C0040047D0180027D00EC4EFEED08
:100280004F240CF582740D3EF583E493FF3395E023
:10029000FEEF24A1FFEE34E68F82F583800D90E619
:1002A000A080081202B7500790E6A0E04401F09049
:0602B000E6A0E04480F02E
:0102B6002225
:03003300020D2695
:040D260053D8EF327D
:0506FE0003310B010BAC
:100BE500E4FFFEFD74312DF8E66005FB7A00800414
:100BF5007A017B00EB2FFFEA3EFE0DBD03E60FBF3A
:100C050000010EAB07AA06E4F9F8FF7E6C7DDC7CDB
:040C1500021206358C
:010C190022B8
:100A44007410F59A74ABF59B759DE4E4F59EFF90E4
:100A5400E67CE090E67BF00FBF80F4E4FF74312F76
:100A6400F8E6FE74EB2FF582E43410F583EEF074AF
:100A74000B2FF582E43411F583EEF00FBF03DE741F
:100A840010F59A74ABF59B759DE4E4F59EFF90E632
:0A0A94007BE090E67CF00FBF80F4D9
:010A9E002235
:1008760090E600E054E74410F090E60B7403F000B5
:10088600000090E61274E8F01207BA120A4490E6E5
:10089600047480F0000000E490E618F00000009078
:1008A600E6047402F000000090E6187408F00000F8
:1008B60000E490E604F000000090E6D27402F00036
:0E08C600000090E6D114F000000075BB042283
:010AFF0022D4
:020AFD00D32202
:020D2A00D322D2
:020D2C00D322D0
:080D160090E6BAE0F530D322AB
:100CDD0090E740E530F0E490E68AF090E68B04F082
:020CED00D32210
:080D1E0090E6BAE0F52FD322A4
:100CEF0090E740E52FF0E490E68AF090E68B04F071
:020CFF00D322FE
:020D2E00D322CE
:020D3000D322CC
:020D3200D322CA
:1002B70090E6B9E0243F601D14602E24026003021B
:1002C700048E90E7407404F0E490E68AF090E68BA1
:1002D70004F002049090E7407424F0A374CBF0A3D9
:0902E700740CF0A374CF02048032
:1002F00090E6BBE0FFE4FCFDFE78081206EBA804E4
:10030000A905AA06AB0790E6BAE0FFE4FCFDFEEB08
:100310002FFFEE3AFEED39FDEC38FCC004C005C0FD
:1003200006C00790E6BCE0FFE4FCFDFE7810120674
:10033000EBD003D002D001D000EB2FFFEA3EFEE964
:100340003DFDE83CFCC004C005C006C007A3E0FFBB
:10035000E4FCFDFE78181206EBD003D002D001D0E9
:1003600000EB2FF51BEA3EF51AE93DF519E83CF5DF
:1003700018E4FFFEFDFCAB1BAA1AA919A818C312AA
:1003800006C77009751B01F51AF519F518AB1BAAFC
:100390001AA919A8187F007E6C7DDC7C0212063534
:1003A0008F1F8E1E8D1D8C1CE47F04FEFDFCAB1F79
:1003B000AA1EA91DA81CC31206C7500AE4751F0473
:1003C000F51EF51DF51CE47FF47E01FDFCAB1FAAB4
:1003D0001EA91DA81CD31206C7400BE4751FF47597
:1003E0001E01F51DF51CE51F5401FFE4FEFDFCFB9D
:1003F000FAF9F8C31206C770167B02F8AF1FAE1EDB
:10040000AD1DAC1C120635EF14F531F5338017E441
:100410007B02FAF9F8AF1FAE1EAD1DAC1C120635FB
:10042000EF14F5318F33120BE58F1B8E1A8D198C5B
:100430001890E6F574FFF0E5BB30E7FB120A449034
:10044000E6D17401F000000075BB04E51BFF90E7E6
:1004500040EFF0AE1AAD19AC1878081206D8A3EF29
:10046000F0AF1BAE1AAD19AC1878101206D8A3EF76
:10047000F0AF1BAE1AAD19AC1878181206D8A3EF5E
:0C048000F0E490E68AF090E68B7404F043
:06048C008002D322C3220E
:100AE500C0E0C083C082D2015391EF90E65D7401EE
:080AF500F0D082D083D0E03282
:100CB100C0E0C083C0825391EF90E65D7404F0D030
:060CC10082D083D0E03276
:100CC700C0E0C083C0825391EF90E65D7402F0D01C
:060CD70082D083D0E03260
:100BAF00C0E0C083C082852925852A2685268285B7
:100BBF002583A37402F08521278522288528828525
:100BCF002783A37407F05391EF90E65D7410F0D074
:060BDF0082D083D0E03259
:100C9900C0E0C083C082D2035391EF90E65D74082F
:080CA900F0D082D083D0E032CC
:100B7200C0E0C083C08290E680E030E72085212576
:100B8200852226852682852583A37402F08529275E
:100B9200852A28852882852783A37407F05391EF3D
:0D0BA20090E65D7420F0D082D083D0E03268
:010D3400328C
:010D3500328B
:010D3600328A
:010D37003289
:010D38003288
:010D39003287
:010D3A003286
:010D3B003285
:010D3C003284
:010D3D003283
:010D3E003282
:010D3F003281
:010D40003280
:010D4100327F
:010D4200327E
:010D4300327D
:010D4400327C
:010D4500327B
:010D4600327A
:010D47003279
:010D48003278
:010D49003277
:010D4A003276
:010D4B003275
:010D4C003274
:010D4D003273
:010D4E003272
:010D4F003271
:010D50003270
:010D5100326F
:010D5200326E
:010D5300326D
:010D5400326C
:010D5500326B
:010D5600326A
:010D57003269
:100B00001201000200000040B404041000000102C1
:100B100000010A060002000000400100090219005D
:100B200001010080320904000001FF0000000705F8
:100B30008202000400090219000101008032090448
:100B4000000001FF000000070582024000000403CE
:100B500009041003430079007000720065007300FF
:100B600073000E0345005A002D005500530042004B
:020B7000000083
:03004300020900AF
:030053000209009F
:10090000020AE500020CC700020CB100020C9900BB
:10091000020BAF00020B7200020D3400020D350015
:10092000020D3600020D3700020D3800020D3900AD
:10093000020D3A00020D3B00020D3C00020D3D008D
:10094000020D3E00020D3500020D3F00020D400079
:10095000020D4100020D4200020D4300020D440051
:10096000020D4500020D3500020D3500020D350067
:10097000020D4600020D4700020D4800020D49001D
:10098000020D4A00020D4B00020D4C00020D4D00FD
:10099000020D4E00020D4F00020D5000020D5100DD
:1009A000020D5200020D5300020D5400020D5500BD
:0809B000020D5600020D570074
:1008D40090E682E030E004E020E60B90E682E0302F
:1008E400E119E030E71590E680E04401F07F147EE2
:0C08F40000120A9F90E680E054FEF02203
:100C1A0030040990E680E0440AF0800790E680E01C
:100C2A004408F07FDC7E05120A9F90E65D74FFF0AF
:0F0C3A0090E65FF05391EF90E680E054F7F022E0
:020C4900A907F9
:100C4B00AE2DAF2E8F828E83A3E064037017AD01A0
:100C5B0019ED7001228F828E83E07C002FFDEC3E1C
:080C6B00FEAF0580DFE4FEFF8F
:010C7300225E
:100C740090E682E044C0F090E681F04387010000F2
:040C8400000000224A
:100A9F008E188F1990E600E054187012E519240192
:100AAF00FFE43518C313F518EF13F519801590E609
:100ABF0000E05418FFBF100BE51925E0F519E518F4
:100ACF0033F518E5191519AE18700215184E600593
:060ADF00120C8880EE22DB
:100C88007400F58690FDA57C05A3E582458370F97F
:010C98002239
:1007030060801000010101010101010700000000E8
:1007130000000000010101010101010100000000CE
:100723000000003F01010101010101070000000079
:1007330000000000010101010101010100000000AE
:100743000000003F0B010B980101010700020401A7
:10075300000000000000010101010101000000365A
:100763000000003F01010101010101070000000039
:10077300000000000101010101010101000000006E
:100783000000003F6024108700000000000000000C
:100793000000000000000000000000000000000056
:1007A300000000000000000000000000471080E08F
:0607B300100001EE4E00F3
:1007BA0090E60174EEF090E6F574FFF0901080E098
:1007CA0090E6F3F0901081E090E6C3F0901082E09A
:1007DA0090E6C1F0901083E090E6C2F0901085E0B8
:1007EA0090E6C0F0901086E090E6F4F075AF0774DA
:1007FA0010F59A7400F59B759DE4E4F59EFF90E66A
:10080A007BE090E67CF00FBF80F490E67174FFF015
:10081A00F5B490E672E04480F043B680000000E44C
:10082A0090E6C4F000000090E6C5F0901087E090D2
:10083A00E6C6F0901088E090E6C7F0901089E09044
:10084A00E6C8F090108AE090E6C9F090108BE0902C
:10085A00E6CAF090108CE090E6CBF090108DE09014
:0B086A00E6CCF090108EE090E6CDF0A0
:010875002260
:030000000209B83A
:0C09B800787FE4F6D8FD7581330209FF5A
:1005F90075F008758200EF2FFFEE33FECD33CDCCB9
:1006090033CCC58233C5829BED9AEC99E58298403B
:100619000CF582EE9BFEED9AFDEC99FC0FD5F0D618
:10062900E4CEFBE4CDFAE4CCF9A88222B800C1B942
:100639000059BA002DEC8BF084CFCECDFCE5F0CB80
:10064900F97818EF2FFFEE33FEED33FDEC33FCEBB9
:1006590033FB10D703994004EB99FB0FD8E5E4F974
:10066900FA227818EF2FFFEE33FEED33FDEC33FC61
:10067900C933C910D7059BE99A4007EC9BFCE99A55
:10068900F90FD8E0E4C9FAE4CCFB2275F010EF2F9A
:10069900FFEE33FEED33FDCC33CCC833C810D7079A
:1006A9009BEC9AE899400AED9BFDEC9AFCE899F8D5
:0E06B9000FD5F0DAE4CDFBE4CCFAE4C8F92268
:1006C700EB9FF5F0EA9E42F0E99D42F0E89C45F089
:0106D7002200
:1006D800E8600FECC313FCED13FDEE13FEEF13FF00
:0306E800D8F12224
:1006EB00E8600FEFC333FFEE33FEED33FDEC33FC6D
:0306FB00D8F12211
:1009C400020492E493A3F8E493A34003F68001F2B3
:1009D40008DFF48029E493A3F85407240CC8C33334
:1009E400C4540F4420C8834004F456800146F6DF03
:1009F400E4800B01020408102040809006FEE47E8F
:100A0400019360BCA3FF543F30E509541FFEE493F7
:100A1400A360010ECF54C025E060A840B8E493A3BE
:100A2400FAE493A3F8E493A3C8C582C8CAC583CAE9
:100A3400F0A3C8C582C8CAC583CADFE9DEE780BEA1
:0107B900003F
:00000001FF
