:0A09E00000010202030304040505F0
:1002B700E4F513F512F511F510C203C200C202C22C
:1002C700011207727E077F008E238F24752B077517
:1002D7002C1275210775221C752907752A35752D6E
:1002E70007752E4EEE54C070030203B875140075DF
:1002F70015808E168F17C374709FFF74079ECF24C7
:1003070002CF3400FEE48F0F8E0EF50DF50CF50BC2
:10031700F50AF509F508AF0FAE0EAD0DAC0CAB0B3A
:10032700AA0AA909A808C31209C45033E517250B5F
:10033700F582E516350AF583E0FFE515250BF5820D
:10034700E514350AF583EFF0E50B2401F50BE435E9
:100357000AF50AE43509F509E43508F50880B78593
:10036700142385152474002480FF740734FFFEC30B
:10037700E52C9FF52CE52B9EF52BC3E5269FF5264F
:10038700E5259EF525C3E5289FF528E5279EF52752
:10039700C3E5229FF522E5219EF521C3E52A9FF5B6
:1003A7002AE5299EF529C3E52E9FF52EE52D9EF515
:1003B7002DD2E843D82090E668E04409F090E65C47
:1003C700E0443DF0D2AF90E680E020E105D2041290
:1003D70008BE90E680E054F7F0538EF8C20312048B
:1003E700FF300105120080C2013003F21209FA50F2
:1003F700EDC2031204DA20001690E682E030E7042B
:10040700E020E1EF90E682E030E604E020E0E4124D
:0704170008ED1209FC80C78B
:0B09D50090E509E030E402C322D322C9
:1000800090E6B9E0700302013F1470030201BC2442
:10009000FE700302023F24FB700302013914700357
:1000A00002013314700302012714700302012D248E
:1000B0000560030202A31209FE40030202AF90E6AC
:1000C000BBE024FE602714603824FD601114602713
:1000D00024067050E52390E6B3F0E524803C120935
:1000E000D5503EE52B90E6B3F0E52C802DE525902C
:1000F000E6B3F0E5268023E52790E6B3F0E5288017
:100100001990E6BAE0FF120919AA06A9077B01EACD
:10011000494B600DEE90E6B3F0EF90E6B4F00202CA
:10012000AF02029E02029E1209B20202AF1209F24F
:100130000202AF1209EA0202AF1209A00202AF12D4
:100140000A0040030202AF90E6B8E0247F60151475
:10015000601924027063A200E43325E0FFA202E4E8
:10016000334F8041E490E740F0803F90E6BCE0549C
:100170007EFF7E00E0D394807C0040047D018002FD
:100180007D00EC4EFEED4F24E0F58274093EF583D0
:10019000E493FF3395E0FEEF24A1FFEE34E68F8277
:1001A000F583E0540190E740F0E4A3F090E68AF094
:1001B00090E68B7402F00202AF02029E120A024025
:1001C000030202AF90E6B8E024FE6016240260034A
:1001D0000202AF90E6BAE0B40105C2000202AF022B
:1001E000029E90E6BAE0705590E6BCE0547EFF7E39
:1001F00000E0D394807C0040047D0180027D00EC0F
:100200004EFEED4F24E0F58274093EF583E493FF42
:100210003395E0FEEF24A1FFEE34E68F82F583E014
:1002200054FEF090E6BCE05480131313541FFFE01B
:10023000540F2F90E683F0E04420F08072805F122C
:100240000A04506B90E6B8E024FE60192402704E58
:1002500090E6BAE0B40104D200805490E6BAE064BB
:1002600002604C803990E6BCE0547EFF7E00E0D313
:1002700094807C0040047D0180027D00EC4EFEED08
:100280004F24E0F58274093EF583E493FF3395E053
:10029000FEEF24A1FFEE34E68F82F583800D90E619
:1002A000A08008120850500790E6A0E04401F090AA
:0602B000E6A0E04480F02E
:0102B6002225
:030033000206FBC7
:0406FB0053D8EF32AF
:1007720090E600E054E74410F090E60B7403F000BA
:10078200000090E61274E8F012041E90E6047480F1
:10079200F0000000E490E618F000000090E6047417
:1007A20002F000000090E6187408F0000000E490E7
:1007B200E604F000000090E6D27402F0000000901F
:0B07C200E6D114F000000075BB04221B
:0104FF0022DA
:0209FA00D32206
:0209FC00D32204
:0209FE00D32202
:0809EA0090E6BAE0F51BD322F0
:1009A00090E740E51BF0E490E68AF090E68B04F0D7
:0209B000D32250
:0809F20090E6BAE0F51AD322E9
:1009B20090E740E51AF0E490E68AF090E68B04F0C6
:0209C200D3223E
:020A0000D322FF
:020A0200D322FD
:020A0400D322FB
:1008500090E6B9E0243F601504702990E7407402E7
:10086000F0E490E68AF090E68B04F0801990E7407F
:100870007422F0A374CBF0E490E68AF090E68B74D7
:0808800002F08002D322C32222
:10094400C0E0C083C082D2015391EF90E65D740190
:08095400F0D082D083D0E03224
:10097400C0E0C083C0825391EF90E65D7404F0D070
:0609840082D083D0E032B6
:10098A00C0E0C083C0825391EF90E65D7402F0D05C
:06099A0082D083D0E032A0
:10088800C0E0C083C082852925852A2685268285E1
:100898002583A37402F0852127852228852882854F
:1008A8002783A37407F05391EF90E65D7410F0D09E
:0608B80082D083D0E03283
:10095C00C0E0C083C082D2035391EF90E65D74086F
:08096C00F0D082D083D0E0320C
:10081300C0E0C083C08290E680E030E720852125D8
:10082300852226852682852583A37402F0852927C0
:10083300852A28852882852783A37407F05391EF9F
:0D08430090E65D7420F0D082D083D0E032CA
:0106FF0032C8
:010A060032BD
:010A070032BC
:010A080032BB
:010A090032BA
:010A0A0032B9
:010A0B0032B8
:010A0C0032B7
:010A0D0032B6
:010A0E0032B5
:010A0F0032B4
:010A100032B3
:010A110032B2
:010A120032B1
:010A130032B0
:010A140032AF
:010A150032AE
:010A160032AD
:010A170032AC
:010A180032AB
:010A190032AA
:010A1A0032A9
:010A1B0032A8
:010A1C0032A7
:010A1D0032A6
:010A1E0032A5
:010A1F0032A4
:010A200032A3
:010A210032A2
:010A220032A1
:010A230032A0
:010A2400329F
:010A2500329E
:010A2600329D
:010A2700329C
:010A2800329B
:100700001201000200000040B404041000000102C5
:1007100000010A0600020000004001000902190061
:1007200001010080320904000001FF0000000705FC
:10073000820200040009021900010100803209044C
:10074000000001FF000000070582024000000403D2
:100750000904100343007900700072006500730003
:1007600073000E0345005A002D005500530042004F
:02077000000087
:03004300020500B3
:03005300020500A3
:100500000209440002098A000209740002095C0021
:1005100002088800020813000206FF00020A060013
:10052000020A0700020A0800020A0900020A0A0079
:10053000020A0B00020A0C00020A0D00020A0E0059
:10054000020A0F00020A0600020A1000020A110045
:10055000020A1200020A1300020A1400020A15001D
:10056000020A1600020A0600020A0600020A060033
:10057000020A1700020A1800020A1900020A1A00E9
:10058000020A1B00020A1C00020A1D00020A1E00C9
:10059000020A1F00020A2000020A2100020A2200A9
:1005A000020A2300020A2400020A2500020A260089
:0805B000020A2700020A2800DC
:1008ED0090E682E030E004E020E60B90E682E03016
:1008FD00E119E030E71590E680E04401F07F147EC9
:0C090D00001207CD90E680E054FEF022BE
:1008BE0030040990E680E0440AF0800790E680E07C
:1008CE004408F07FDC7E051207CD90E65D74FFF0E4
:0F08DE0090E65FF05391EF90E680E054F7F02240
:02091900A9072C
:10091B00AE2DAF2E8F828E83A3E064037017AD01D3
:10092B0019ED7001228F828E83E07C002FFDEC3E4F
:08093B00FEAF0580DFE4FEFFC2
:010943002291
:1004DA0090E682E044C0F090E681F0438701000094
:0404EA0000000022EC
:1007CD008E188F1990E600E054187012E519240167
:1007DD00FFE43518C313F518EF13F519801590E6DE
:1007ED0000E05418FFBF100BE51925E0F519E518C9
:1007FD0033F518E5191519AE18700215184E600568
:06080D001204EE80EE2251
:1004EE007400F58690FDA57C05A3E582458370F921
:0104FE0022DB
:1005B8006080100001010101010101070000000035
:1005C800000000000101010101010101000000001B
:1005D8000000003F010101010101010700000000C6
:1005E80000000000010101010101010100000000FB
:1005F8000000003F0B010B980101010700020401F4
:1006080000000000000001010101010100000036A6
:100618000000003F01010101010101070000000085
:1006280000000000010101010101010100000000BA
:100638000000003F60241087000000000000000058
:1006480000000000000000000000000000000000A2
:10065800000000000000000000000000471080E0DB
:06066800100001EE4E003F
:10041E0090E60174EEF090E6F574FFF0901080E037
:10042E0090E6F3F0901081E090E6C3F0901082E039
:10043E0090E6C1F0901083E090E6C2F0901085E057
:10044E0090E6C0F0901086E090E6F4F075AF077479
:10045E0010F59A7400F59B759DE4E4F59EFF90E609
:10046E007BE090E67CF00FBF80F490E67174FFF0B5
:10047E00F5B490E672E04480F043B680000000E4EC
:10048E0090E6C4F000000090E6C5F0901087E09072
:10049E00E6C6F0901088E090E6C7F0901089E090E4
:1004AE00E6C8F090108AE090E6C9F090108BE090CC
:1004BE00E6CAF090108CE090E6CBF090108DE090B4
:0B04CE00E6CCF090108EE090E6CDF040
:0104D9002200
:0300000002066F86
:0C066F00787FE4F6D8FD75812E0206B6F7
:1009C400EB9FF5F0EA9E42F0E99D42F0E89C45F089
:0109D4002200
:10067B000202B7E493A3F8E493A34003F68001F2DC
:10068B0008DFF48029E493A3F85407240CC8C33380
:10069B00C4540F4420C8834004F456800146F6DF4F
:1006AB00E4800B01020408102040809005B8E47E22
:1006BB00019360BCA3FF543F30E509541FFEE49344
:1006CB00A360010ECF54C025E060A840B8E493A30B
:1006DB00FAE493A3F8E493A3C8C582C8CAC583CA36
:1006EB00F0A3C8C582C8CAC583CADFE9DEE780BEEE
:01066E00008B
:00000001FF
